:101A3A0054656D70657261747572653A0048756DAA
:071A4A0069646974793A0038
:0206CA00C10667
:1010E6001219FF121A1F12007E1211E643CF10903A
:1010F6000613120699000025807F207E001215D85F
:10110600D390066CE094B890066BE0940B404CE4E8
:10111600F0A3F090066DF0A3F0121936E490066B7A
:10112600F0A3F0C20243CF103002FD120CEB43CF06
:1011360010121A977BFF7A1A793AE4FDFF120026FD
:101146007D027F461214327BFF7A1A79477D04E4CA
:10115600FF1200267D067F46121900120F469006E2
:1011660010EFF0E4900665F0EF14B40800506A90B2
:10117600118375F003A4C58325F0C5837302119B03
:101186000211AA0211AF0211B40211BD0211C60268
:1011960011CF0211D82006071217DED206803A12A6
:1011A60018188035121852803012188C802B12189D
:1011B600C6C280C28180221218C6D280C28180191E
:1011C6001218C6C280D28180101218C6D280D2816F
:0C11D60080071218C6D280D28143CF10CF
:0411E20002110622CE
:1019FF00759AFFE4F59BF591F592F5A175A2FF7528
:101A0F00B1FFF5B275C1FF75C20175D9FFF5DA22C5
:101A6800D3EF9400EE94004007EF1F70011E80F042
:011A7800224B
:0606CC00C100C101C102E2
:10196A0043A5203000FDC20075A7783000FDC200F3
:10197A0075A7403000FDC2008FA73000FDC2007F6E
:10198A00647E00121A6843A5107F647E00121A68EA
:03199A00C2002266
:10199D0043A5203000FDC20075A7783000FDC200C0
:1019AD00E4F5A73000FDC2008FA73000FDC2007F17
:1019BD00647E00121A6843A5107F647E00121A68B7
:0319CD00C2002233
:1019360043C5203001FDC20175C7883001FDC201D3
:1019460075C72C3001FDC20175C7063001FDC20105
:101956007F647E00121A6843C5107F647E00121AE7
:0419660068C2012230
:100CEB0043C5203001FDC20175C7893001FDC2012A
:100CFB0043C4083001FDC201AFC790064EE4F0A318
:100D0B00EFF03001FDC201AFC7900650E4F0A3EF46
:100D1B00F03001FDC2013001FDC201AFC790064AA0
:100D2B00E4F0A3EFF03001FDC201AFC790064CE435
:100D3B00F0A3EFF053C4F73001FDC201C2017F6491
:100D4B007E00121A6843C5107F647E00121A6890E9
:100D5B00064FE0F8E4F0E890064EF0900650E0FE07
:100D6B00A3E0FF90064FE02FF090064EE03EF0E040
:100D7B00FCA3E0FDD394D3EC94415003020E4DC27F
:100D8B0003E41203297B007AFF797F7847120287ED
:100D9B00E4FBFA792F784312017EE4FBFA7934787D
:100DAB00C212008DE4FBFA7920784112017E120306
:100DBB006290064EEEF0A3EFF0D39458EE940240FF
:100DCB000C9006447402F0A37458F0800F90064EFA
:100DDB00E0FFA3E0900644CFF0A3EFF0900644E0D1
:100DEB00FCA3E0FDEC900652F0A3EDF090064EE074
:100DFB00FAA3E0FB7C037DE8FFAE021205067E0042
:100E0B007F64CFCDCFCECCCE120506900648EFF047
:100E1B007C007D64AF03AE021205067E007F0ACF15
:100E2B00CDCFCECCCE120506A3EFF090064EE0FE52
:100E3B00A3E0FF7C007D0A120506900647EDF00249
:100E4B000EDAD20390064EE0FCA3E0FDE412032978
:100E5B007B007AFF797F78471202877B007AC07913
:100E6B00DA784412017E12036290064EEEF0A3EF85
:100E7B00F090065274FFF0EFF404FFC3743E9FFF33
:100E8B00A3F0C3E49FFB74019400FA7C007D64AF74
:100E9B0003FE120506900648EFF07C007D64AF035D
:100EAB00AE021205067E007F0ACFCDCFCECCCE127E
:100EBB000506A3EFF0900653E0FFC3E49FFF740118
:100ECB009400FE7C007D0A120506900647EDF0901B
:100EDB00064BE0F8E4F0E890064AF090064CE0FE92
:100EEB00A3E0FF90064BE02FF090064AE03EF0E0C7
:100EFB00FCA3E0FDE41203297B667AD679237844C0
:100F0B0012028712036290064AEEF0A3EFF09006EE
:100F1B004AE0FEA3E0FF900654F07C007D0A120528
:100F2B0006900643EFF090064AE0FEA3E0FF7C003C
:0B0F3B007D0A120506900646EDF0222C
:101A1F00438F80438E8075A48075A50375C4807530
:0B1A2F00C50343AA0243AA01D2AF2264
:03007B00021A79ED
:0F1A7900C0E0E5A430E60553A4BFD200D0E032B0
:03008300021A88D6
:0F1A8800C0E0E5C430E60553C4BFD201D0E03260
:04007E0012000E223C
:10000E00438E01438901758A80758CC1C28CD2A939
:05001E00D28CD2AF22DC
:03000B0002174D8C
:10174D00C0E0C083C082C0D0758A80758CC1900600
:10175D006CE004F0700690066BE004F0C390066E2A
:10176D00E0946490066DE09400500EA3E004F070D8
:10177D000690066DE004F0800990066DE4F0A3F08C
:0B178D00D202D0D0D082D083D0E03256
:0406D200C104C10599
:1015D800900611EEF0A3EFF053A1FC43A203439849
:1015E80050438E02900611E0FEA3E0FFE4FCFD7B71
:1015F800407A42790FF812055B900613E0F8A3E0F1
:10160800F9A3E0FAA3E0FB1205E678081206868F34
:101618008D900611E0FEA3E0FFE4FCFD7B407A42DA
:10162800790FF812055B900613E0F8A3E0F9A3E040
:10163800FAA3E0FB1205E68F8BC28EC2ABD2ACD206
:02164800AF22CF
:071A97001213821216FF2258
:030023000216B012
:1016B000C0E0C0F0C083C082C0D075D000C000C000
:1016C00001C002C003C004C005C006C007309904B1
:1016D000C299D20430980DC298D205900655E5996A
:1016E000F012164AD007D006D005D004D003D0029D
:0F16F000D001D000D0D0D082D083D0F0D0E03263
:1015640055AA03000001000355AA03000001010469
:1015740055AA0301002A7B2270223A226C716B76F1
:10158400676561647A307A636A6E3866222C2276E3
:10159400223A22312E302E30222C226D223A307DF6
:1015A4003B55AA030200000455AA03030000055595
:1015B400AA0307000801020004FFFF55AA0307005D
:1015C4000801020004000055AA03070008020200F3
:0415D400040000000F
:1017DE0078127C067D017BFF7A1579647E007F0886
:1017EE001204B3E4900611F0900611E0FFD39407B3
:1017FE00501774122FF582E43406F583E0FF1200C1
:09180E0003900611E004F080DFF4
:0118170022AE
:1018180078127C067D017BFF7A15796C7E007F0843
:101828001204B3E4900611F0900611E0FFD3940778
:10183800501774122FF582E43406F583E0FF120086
:0918480003900611E004F080DFBA
:011851002274
:1018520078127C067D017BFF7A1579747E007F31D8
:101862001204B3E4900611F0900611E0FFD3943015
:10187200501774122FF582E43406F583E0FF12004C
:0918820003900611E004F080DF80
:01188B00223A
:10188C0078127C067D017BFF7A1579A57E007F0797
:10189C001204B3E4900611F0900611E0FFD3940605
:1018AC00501774122FF582E43406F583E0FF120012
:0918BC0003900611E004F080DF46
:0118C5002200
:1018C60078127C067D017BFF7A1579AC7E007F0756
:1018D6001204B3E4900611F0900611E0FFD39406CB
:1018E600501774122FF582E43406F583E0FF1200D8
:0918F60003900611E004F080DF0C
:0118FF0022C6
:03138200300356DF
:1013850078127C067D017BFF7A1579B37E007F0C90
:101395001204B3900652E0FF900653E0FE2F241688
:1013A500FD900668F090061EEFF0A3EEF0A3EDF0B9
:1013B500E4900611F0900611E0FFD3940E506D7481
:1013C500122FF582E43406F583E0FF120003900640
:0613D50011E004F080DFCE
:1013DB0078127C067D017BFF7A1579BF7E007F0C2E
:1013EB001204B3900652E0FF900653E0FE2F241830
:1013FB00FD900668F090061EEFF0A3EEF0A3EDF063
:10140B00E4900611F0900611E0FFD3940E50177480
:10141B00122FF582E43406F583E0FF1200039006E9
:06142B0011E004F080DF77
:011431002298
:1016FF0078127C067D017BFF7A1579CB7E007F0DFA
:10170F001204B3900654E0FF2419FE900668F0907F
:10171F00061FEFF0A3EEF0E4900611F0900611E033
:10172F00FFD3940E501774122FF582E43406F5830D
:0D173F00E0FF120003900611E004F080DFCF
:01174C00227A
:10164A00C205900669E0A3F0900655E0900669F09D
:10165A00A3E0FFB45520900669E0FEB4AA189006EC
:10166A0056EFF0A3EEF0900656E02E900667F09043
:10167A0006667402F022900666E0FFD394014020C9
:10168A00EF940F501B900669E0FF900666E024561F
:10169A00F582E43406F583EFF0900666E004F02262
:0616AA00E4900666F02248
:080003008F993004FDC20422B4
:100F4600900656E064557027A3E064AA7021A3E0DA
:100F5600701DA3E07019A3E07015A3E07011A3E063
:100F6600B4FF0C9006657401F090065C7455F09021
:100F76000656E0FF64557021A3E064AA701BA3E047
:100F86007017A3E0B40112A3E0700EA3E0700AA3E9
:100F9600E070069006657402F0EF6455702A9006BC
:100FA60057E064AA7022A3E0701EA3E0B40219A35E
:100FB600E07015A3E07011A3E0B4010C900665740F
:100FC60003F090065C7455F0900656E06455702E5A
:100FD600A3E064AA7028A3E07024A3E06403701E53
:100FE600A3E0701AA3E0B40115A3E07011A3E0B466
:100FF600030C9006657404F090065C7455F0900638
:1010060056E06455702FA3E064AA7029A3E070250A
:10101600A3E06403701FA3E0701BA3E0B40116A352
:10102600E0B40111A3E0B4040C9006657405F090D9
:10103600065C7455F0900656E06455702FA3E06484
:10104600AA7029A3E07025A3E06403701FA3E070D3
:101056001BA3E0B40116A3E0B40211A3E0B4050C8F
:101066009006657406F090065C7455F0900656E09E
:101076006455702FA3E064AA7029A3E07025A3E04D
:101086006403701FA3E0701BA3E0B40116A3E0B4D1
:101096000311A3E0B4060C9006657407F090065C95
:1010A6007455F0900656E06455702FA3E064AA705C
:1010B60029A3E07025A3E06403701FA3E0701BA3BF
:1010C600E0B40116A3E0B40411A3E0B4070C900643
:1010D600657408F090065C7455F0900665E0FF2292
:1006D600661000000000000000000000000000009E
:1006E60000000000000000F80000000000000033D9
:1006F6003000000000100C06100C06000000000080
:100706000000000040C07840C0784000043F040468
:100716003F040400007088FC08300000001820FF29
:10072600211E0000F008F000E018000000211C0364
:100736001E211E0000F00888700000001E212324E0
:100746001927211010160E000000000000000000FE
:1007560000000000000000E018040200000000078E
:100766001820400000020418E00000000040201895
:1007760007000000404080F0804040000202010F68
:1007860001020200000000F0000000000101011F4C
:1007960001010100000000000000000080B07000B0
:1007A6000000000000000000000000000001010140
:1007B60001010101000000000000000000303000CF
:1007C60000000000000000008060180400601806A9
:1007D6000100000000E010080810E000000F1020E3
:1007E60020100F00001010F8000000000020203F2D
:1007F60020200000007008080888700000302824B7
:100806002221300000300888884830000018202057
:1008160020110E000000C02010F80000000704247C
:10082600243F240000F808888808080000192120C1
:1008360020110E0000E0108888180000000F11201B
:1008460020110E0000380808C83808000000003FD4
:10085600000000000070880808887000001C222133
:1008660021221C0000E010080810E00000003122E0
:1008760022110F00000000C0C00000000000003080
:1008860030000000000000800000000000008060D2
:100896000000000000008040201008000001020453
:1008A600081020004040404040404000040404043A
:1008B60004040400000810204080000000201008F6
:1008C60004020100007048080808F000000000302B
:1008D60036010000C030C828E810E00007182724B9
:1008E60023140B000000C038E0000000203C230267
:1008F6000227382008F8888888700000203F2020CA
:1009060020110E00C03008080808380007182020FB
:100916002010080008F808080810E000203F2020F2
:1009260020100F0008F88888E8081000203F2020D3
:100936002320180008F88888E8081000203F2000C7
:1009460003000000C03008080838000007182020FF
:10095600221E020008F808000008F808203F2101BE
:1009660001213F20000808F8080800000020203F69
:100976002020000000000808F8080800C0808080D9
:100986007F00000008F888C028180800203F2001D2
:100996002638200008F8080000000000203F20202C
:1009A6002020300008F8F800F8F80800203F003F43
:1009B600003F200008F830C00008F808203F20005B
:1009C60007183F00E01008080810E0000F1020206C
:1009D60020100F0008F808080808F000203F210141
:1009E60001010000E01008080810E0000F18242498
:1009F60038504F0008F8888888887000203F20000B
:100A0600030C3020007088080808380000382021C0
:100A160021221C00180808F8080818000000203FCA
:100A26002000000008F808000008F808001F202031
:100A360020201F000878880000C838080000073802
:100A46000E010000F80800F80008F800033C070053
:100A5600073C0300081868808068180820302C03BB
:100A6600032C30200838C800C83808000000203F92
:100A76002000000010080808C83808002038262181
:100A860020201800000000FE020202000000007F85
:100A960040404000000C30C0000000000000000193
:100AA6000638C00000020202FE000000004040407E
:100AB6007F000000000004020202040000000000A3
:100AC6000000000000000000000000008080808020
:100AD6008080808000020204000000000000000008
:100AE60000000000000080808080000000192422A1
:100AF60022223F2008F8008080000000003F1120DD
:100B060020110E000000008080800000000E1120E1
:100B160020201100000000808088F800000E1120BF
:100B260020103F200000808080800000001F2222CD
:100B360022221300008080F0888888180020203F39
:100B4600202000000000808080808000006B94944C
:100B56009493600008F8008080800000203F210008
:100B660000203F2000809898000000000020203FD1
:100B760020200000000000809898000000C08080BF
:100B8600807F000008F8000080808000203F24025B
:100B96002D302000000808F8000000000020203F4B
:100BA600202000008080808080808000203F200000
:100BB6003F20003F8080008080800000203F210091
:100BC60000203F200000808080800000001F202041
:100BD60020201F00808000808000000080FFA12070
:100BE60020110E000000008080808000000E112081
:100BF60020A0FF80808080008080800020203F2110
:100C060020000100000080808080800000332424C2
:100C160024241900008080E0808000000000001F6E
:100C2600202000008080000000808000001F20201F
:100C360020103F20808080000080808000010E30E0
:100C46000806010080800080008080800F300C0341
:100C56000C300F0000808000808080000020312E44
:100C66000E312000808080000080808080818E7020
:100C76001806010000808080808080000021302CD2
:100C86002221300000000000807C020200000000EB
:100C9600003F404000000000FF0000000000000090
:100CA600FF0000000002027C800000000040403F80
:100CB600000000000006010102020404000000001A
:100CC60000000000060909E6F80C0402000000070F
:100CD6001F30204002020202041E00004040404035
:040CE60020100000DA
:101A510090061CEFF0ED6006E0FF12196A22900675
:071A61001CE0FF12199D2299
:10179800E4900611F0900611E0FFC394085036EF6C
:1017A80024B0FFE4FD121A51E4FDFF121A51E4FDC2
:1017B8007F10121A51E4900612F07D01E4FF121A0C
:1017C80051900612E004F0E0C3948040ED900611B9
:0517D800E004F080C0F8
:0117DD0022E9
:1019D00090061BEFF0ED24B0FFE4FD121A519006C3
:1019E0001BE054F0FFC4540F4410FFE4FD121A51E1
:0F19F00090061BE0540F4401FFE4FD121A512230
:10002600900611EFF0A3EDF0A3EBF0A3EAF0A3E93D
:01003600F0D9
:10003700E4A3F0900613E0FBA3E0FAA3E0F9A3E042
:10004700F5827583001204D9FB6027900611E0FF43
:10005700A3E0FD1212CD900611E02408F0E0D3943E
:10006700784007E4F0A3E02402F0900616E004F0DD
:0200770080C146
:010079002264
:0B12CD00900618EDF0900617EFF0FD02
:1012D800E4900619F0A3F0EB24E0900619F0EDD3A2
:1012E800947F400AE4900617F0A3E02402F09006E9
:1012F80017E0FFA3E0FD1219D0E490061AF090065B
:101308001AE0FFC39408502B900619E075F010A45A
:101318002FF582E435F0F583E5822400F582E58334
:101328003400F583E0FF7D01121A5190061AE0049B
:10133800F080CB900617E0FFA3E004FD1219D0E47B
:1013480090061AF090061AE0FFC39408502B9006F6
:1013580019E075F010A42FF582E435F0F583E582E5
:101368002408F582E5833400F583E0FF7D01121A35
:091378005190061AE004F080CB4C
:011381002249
:1011E600E4FD7FAE121A51E4FD7F2E121A51E4FD82
:1011F600FF121A51E4FD7F10121A51E4FD7F4012CE
:101206001A51E4FD7FB0121A51E4FD7F81121A5182
:10121600E4FD7FFF121A51E4FD7FA0121A51E4FD8E
:101226007FA7121A51E4FD7FA8121A51E4FD7F3FF1
:10123600121A51E4FD7FC0121A51E4FD7FD3121A2F
:1012460051E4FDFF121A51E4FD7FD5121A51E4FD57
:101256007FF0121A51E4FD7FD8121A51E4FD7F0582
:10126600121A51E4FD7FD6121A51E4FDFF121A51EB
:10127600E4FD7FD9121A51E4FD7FF1121A51E4FD03
:101286007FDA121A51E4FD7F12121A51E4FD7FDB58
:10129600121A51E4FD7F30121A51E4FD7F8D121AA5
:1012A60051E4FD7F14121A51E4FD7FA4121A51E491
:1012B600FD7FA6121A51E4FD7FAF121A511217983C
:0712C600E4FDFF1219D02224
:10143200900611EFF0A3EDF0300311900611E024B5
:10144200F8FFA3E0FD7B2D1212CD800F900611E074
:1014520024F8FFA3E0FD7B201212CD900648E0FEA7
:101462006011900611E0FFA3E0FDEE2430FB1212A2
:10147200CD800D900611E0FFA3E0FD7B201212CD7E
:10148200900611E02408FFA3E0FD900649E0243015
:10149200FB1212CD900611E02410FFA3E0FD7B2E7B
:1014A2001212CD900611E02418FFA3E0FD9006472A
:1014B200E02430FB1212CD900611E02420FFA3E0BD
:1014C200FD7B7F1212CD900611E02428FFA3E0FDE0
:0614D2007B801212CD2206
:10190000900611EFF0A3EDF0900643E02430FB12B7
:1019100012CD900611E02408FFA3E0FD900646E0FA
:101920002430FB1212CD900611E02410FFA3E0FD3D
:061930007B251212CD22FE
:100086000203CEE86480F8E933E83360110460F0D7
:10009600ED33EC337009E8FCE9FDEAFEEBFF2204E0
:1000A60060DED3EB9FEA9EE99DE8C2E78CF0C2F7DB
:1000B60095F0400CE8CCF8E9CDF9EACEFAEBCFFBA7
:1000C60012039985D0F05804700320D5B3E8047064
:1000D600075002B2D50203D892D5EC0460F7E4CCFF
:1000E600C0E0C398F8603B94186008400DD0E0FB70
:1000F6000203B0E4FBFAC9FC8028E830E406E4C950
:10010600FBE4CAFCE830E305E4C9CACBFCE85407C3
:100116006010F8C3E913F9EA13FAEB13FBEC13FCCE
:10012600D8F130F52FC3E49CFCEF9BFFEE9AFEED71
:1001360099FDD0E0FBEF4E4D4C701222DB0302031B
:10014600D5EC2CFCEF33FFEE33FEED33FDED30E75F
:10015600EB0203B0EF2BFFEE3AFEED39FDD0E0FBEC
:1001660050130BBB00030203D8ED13FDEE13FEEF95
:0801760013FFEC13FC0203B0BF
:10017E00EC4D6011E8497017ED33EC3304600DE47B
:10018E00FCFFFEFD22E933E8330470F80203CE12C1
:10019E00039958046009E4CC2481500628500902C2
:1001AE0003D82840030203D5C0E0EB4A7044B9805F
:1001BE0006D0E0FB0203C4EF4E701CBD8008EBFFBF
:1001CE00EAFEE9FD80EBE98DF0A4FEE5F0020267A0
:1001DE00E9CDF9EAFEEBFFEF89F0A4FCE5F0CE895C
:1001EE00F0A42EFFE435F0CD89F0A42DFEE435F019
:1001FE008067EF4E7005BD80D780C3EF8BF0A4AC47
:10020E00F0EE8BF0A42CFCE435F0F8EF8AF0A42C81
:10021E00E5F038FCE433CB8DF0A42CFCE5F03BF894
:10022E00EE8AF0A42CFCE5F038F8E433CF89F0A484
:10023E002CFCE5F038CF3400CE89F0A42FFFE5F08A
:10024E003EFEE433C98DF0A42EFEE5F039CD8AF0E2
:10025E00A42FFFE5F03EFEE43DFD33D0E0FB50075A
:10026E000BBB000F0203D8EC2CFCEF33FFEE33FE7A
:06027E00ED33FD0203B0A8
:100284000203D8EC5D046005E8590470030203CE50
:10029400120399580460F6EC4860F2EC7004FDFE19
:1002A400FF22C860DB2481C85009C398600250064D
:1002B4000203D59850CAF582E9294B4A7005AB82EE
:1002C4000203C475F0007C1A7880C3EF9BEE9AEDAC
:1002D40099400DC3EF9BFFEE9AFEED99FDE842F0C5
:1002E400DC23ACF0D0E0FFD0E0FED0E0FDAB822018
:1002F400E7101BEB60BAEC2CFCEF33FFEE33FEEDA2
:1003040033FD0203B0E803F830E705C0F075F000F0
:10031400EF2FFFEE33FEED33FD40B830E7C280AA85
:1003240075F020800E75F010800575F0087D007E54
:10033400007F003392D530D503120678EC33401099
:10034400EF33FFEE33FEED33FDEC33FCD5F0ED225D
:0E035400E5F0247EA2D513CC92E7CDCEFF2299
:10036200EDD2E7CD33EC3392D524814006E4FFFE93
:10037200FDFC22FCE4CFCECDCC24E0501174FF80F2
:10038200EDC3CC13CCCD13CDCE13CECF13CF04708F
:07039200F030D5DE02067811
:10039900E9D2E7C933E833F892D5EDD2E7CD33ECAA
:0703A90033FC5002B2D52223
:1003B000EC30E7100FBF000C0EBE00080DBD0004AE
:1003C0000BEB6014A2D5EB13FCED92E7FD2274FF5A
:1003D000FCFDFEFF22E480F8A2D574FF13FC7D80B3
:0303E000E480EFC7
:030000000214D80F
:0C14D800787FE4F6D8FD75812002151F16
:1003E300E709F608DFFA8046E709F208DFFA803EFC
:1003F30088828C83E709F0A3DFFA8032E309F608E9
:10040300DFFA8078E309F208DFFA807088828C8350
:10041300E309F0A3DFFA806489828A83E0A3F60804
:10042300DFFA805889828A83E0A3F208DFFA804CDE
:1004330080D280FA80C680D4806980F280338010B5
:1004430080A680EA809A80A880DA80E280CA80331E
:1004530089828A83ECFAE493A3C8C582C8CCC58396
:10046300CCF0A3C8C582C8CCC583CCDFE9DEE78066
:100473000D89828A83E493A3F608DFF9ECFAA9F0E5
:10048300EDFB2289828A83ECFAE0A3C8C582C8CC3B
:10049300C583CCF0A3C8C582C8CCC583CCDFEADE54
:1004A300E880DB89828A83E493A3F208DFF980CCB6
:1004B30088F0EF60010E4E60C388F0ED2402B404AF
:1004C3000050B9F582EB2402B4040050AF23234556
:0604D30082239004337344
:1004D900BB010CE58229F582E5833AF583E02250D8
:1004E90006E92582F8E622BBFE06E92582F8E22222
:0D04F900E58229F582E5833AF583E493223C
:10050600BC000BBE0029EF8DF084FFADF022E4CCD9
:10051600F875F008EF2FFFEE33FEEC33FCEE9DECA2
:10052600984005FCEE9DFE0FD5F0E9E4CEFD22EDE8
:10053600F8F5F0EE8420D21CFEADF075F008EF2F32
:10054600FFED33FD4007985006D5F0F222C398FD23
:050556000FD5F0EA22C0
:10055B00E88FF0A4CC8BF0A42CFCE98EF0A42CFC3F
:10056B008AF0EDA42CFCEA8EF0A4CDA8F08BF0A4BD
:10057B002DCC3825F0FDE98FF0A42CCD35F0FCEB1C
:10058B008EF0A4FEA9F0EB8FF0A4CFC5F02ECD39E1
:0F059B00FEE43CFCEAA42DCE35F0FDE43CFC224E
:1005AA0075F008758200EF2FFFEE33FECD33CDCC08
:1005BA0033CCC58233C5829BED9AEC99E58298408B
:1005CA000CF582EE9BFEED9AFDEC99FC0FD5F0D668
:1005DA00E4CEFBE4CDFAE4CCF9A88222B800C1B992
:1005EA000059BA002DEC8BF084CFCECDFCE5F0CBD0
:1005FA00F97818EF2FFFEE33FEED33FDEC33FCEB09
:10060A0033FB10D703994004EB99FB0FD8E5E4F9C3
:10061A00FA227818EF2FFFEE33FEED33FDEC33FCB0
:10062A00C933C910D7059BE99A4007EC9BFCE99AA4
:10063A00F90FD8E0E4C9FAE4CCFB2275F010EF2FE9
:10064A00FFEE33FEED33FDCC33CCC833C810D707E9
:10065A009BEC9AE899400AED9BFDEC9AFCE899F824
:0E066A000FD5F0DAE4CDFBE4CCFAE4C8F922B7
:0E067800C3E49FFFE49EFEE49DFDE49CFC2293
:10068600E8600FECC313FCED13FDEE13FEEF13FF52
:03069600D8F12276
:10069900A8828583F0D083D0821206B01206B012E8
:1006A90006B01206B0E473E493A3C583C5F0C5830D
:1006B900C8C582C8F0A3C583C5F0C583C8C582C8AB
:0106C900220E
:1014E4000210E6E493A3F8E493A34003F68001F228
:1014F40008DFF48029E493A3F85407240CC8C33309
:10150400C4540F4420C8834004F456800146F6DFD7
:10151400E4800B01020408102040809006CAE47E97
:10152400019360BCA3FF543F30E509541FFEE493CC
:10153400A360010ECF54C025E060A840B8E493A393
:10154400FAE493A3F8E493A3C8C582C8CAC583CABE
:10155400F0A3C8C582C8CAC583CADFE9DEE780BE76
:010CEA000009
:00000001FF
